:020000040800F2
:100000000028002049160008BD130008C31300088B
:10001000C9130008CF130008D51300080000000022
:10002000000000000000000000000000DB130008DA
:10003000E713000800000000F3130008FF13000896
:1000400091160008911600089116000891160008F4
:1000500091160008911600089116000891160008E4
:1000600091160008911600089116000891160008D4
:1000700091160008911600089116000891160008C4
:1000800091160008911600089116000891160008B4
:1000900091160008911600089116000891160008A4
:1000A0009116000891160008911600089116000894
:1000B0000D140008911600080000000091160008B9
:1000C00091160008000000000000000091160008D2
:1000D00000000000911600089116000800000000C2
:1000E0009116000891160008911600080000000003
:1000F0000000000000000000000000000000000000
:0C01000000000000000000005FF808F1A3
:10010C0010B5054C237833B9044B13B10448AFF345
:10011C0000800123237010BD40000020000000006F
:10012C00D82C000808B5034B1BB103490348AFF3A7
:10013C00008008BD0000000044000020D82C0008FE
:10014C0080B582B000AF78607B68002B29D100228B
:10015C004FF40071D34801F098FD00224FF48061F8
:10016C00D04801F092FD00224FF40061CD4801F01F
:10017C008CFD00224FF48051CA4801F086FD00220C
:10018C004FF40051C74801F080FD00224FF480412C
:10019C00C44801F07AFD01224FF40041C14801F03E
:1001AC0074FD7B68012B29D101224FF40071BD48ED
:1001BC0001F06BFD00224FF48061BA4801F065FD3F
:1001CC0000224FF40061B74801F05FFD01224FF4AB
:1001DC008051B44801F059FD01224FF40051B1484F
:1001EC0001F053FD01224FF48041AE4801F04DFD6A
:1001FC0001224FF40041AB4801F047FD7B68022B14
:10020C0029D100224FF40071A64801F03EFD0022D6
:10021C004FF48061A34801F038FD01224FF40061D6
:10022C00A04801F032FD00224FF480519D4801F0AE
:10023C002CFD00224FF400519A4801F026FD0122BA
:10024C004FF48041974801F020FD00224FF400410B
:10025C00944801F01AFD7B68032B29D100224FF43E
:10026C000071904801F011FD00224FF480618D481F
:10027C0001F00BFD00224FF400618A4801F005FDEE
:10028C0000224FF48051874801F0FFFC01224FF40B
:10029C000051844801F0F9FC01224FF4804181485F
:1002AC0001F0F3FC00224FF400417E4801F0EDFC1C
:1002BC007B68042B29D101224FF40071794801F09D
:1002CC00E4FC00224FF48061764801F0DEFC002251
:1002DC004FF40061734801F0D8FC01224FF48051B7
:1002EC00704801F0D2FC01224FF400516D4801F02E
:1002FC00CCFC00224FF480416A4801F0C6FC00227D
:10030C004FF40041674801F0C0FC7B68052B29D1F4
:10031C0000224FF40071634801F0B7FC01224FF446
:10032C008061604801F0B1FC00224FF400615D482F
:10033C0001F0ABFC00224FF480515A4801F0A5FCAF
:10034C0001224FF40051574801F09FFC00224FF45A
:10035C008041544801F099FC00224FF4004151486F
:10036C0001F093FC7B68062B29D100224FF400711D
:10037C004C4801F08AFC01224FF48061494801F09D
:10038C0084FC00224FF40061464801F07EFC002200
:10039C004FF48051434801F078FC00224FF4005197
:1003AC00404801F072FC00224FF480413D4801F0BE
:1003BC006CFC00224FF400413A4801F066FC7B686B
:1003CC00072B29D100224FF40071364801F05DFC57
:1003DC0000224FF48061334801F057FC00224FF4A7
:1003EC000061304801F051FC01224FF480512D483E
:1003FC0001F04BFC01224FF400512A4801F045FC5E
:10040C0001224FF48041274801F03FFC01224FF4B8
:10041C000041244801F039FC7B68082B29D10022CB
:10042C004FF400711F4801F030FC00224FF4806142
:10043C001C4801F02AFC00224FF40061194801F01D
:10044C0024FC00224FF48051164801F01EFC0022BF
:10045C004FF40051134801F018FC00224FF4804176
:10046C00104801F012FC00224FF400410D4801F03D
:10047C000CFC7B68092B2CD100224FF4007109482D
:10048C0001F003FC00224FF48061064801F0FDFBF3
:10049C0000224FF40061034801F0F7FB00224FF4F7
:1004AC00805101E0000801400C4801F0EEFB0122F4
:1004BC004FF40051094801F0E8FB00224FF4804151
:1004CC00064801F0E2FB00224FF40041034801F022
:1004DC00DCFB00BF0837BD4680BD00BF00080140F3
:1004EC0080B582B000AF78607B68002B24D10022ED
:1004FC000821C74801F0C9FB00221021C44801F0B3
:10050C00C4FB00222021C24801F0BFFB0022402185
:10051C00BF4801F0BAFB00228021BD4801F0B5FBB9
:10052C0000224FF48071BA4801F0AFFB01224FF466
:10053C000071B74801F0A9FB7B68012B24D1012283
:10054C000821B34801F0A1FB00221021B04801F0B2
:10055C009CFB00222021AE4801F097FB0122402198
:10056C00AB4801F092FB01228021A94801F08DFBE0
:10057C0001224FF48071A64801F087FB01224FF451
:10058C000071A34801F081FB7B68022B24D100226F
:10059C0008219F4801F079FB002210219C4801F0B2
:1005AC0074FB012220219A4801F06FFB00224021AC
:1005BC00974801F06AFB00228021954801F065FB09
:1005CC0001224FF48071924801F05FFB00224FF43E
:1005DC0000718F4801F059FB7B68032B24D100225A
:1005EC0008218B4801F051FB00221021884801F0B2
:1005FC004CFB00222021864801F047FB00224021C1
:10060C00834801F042FB01228021814801F03DFB2F
:10061C0001224FF480717E4801F037FB00224FF429
:10062C0000717B4801F031FB7B68042B24D1012243
:10063C000821774801F029FB00221021744801F0B1
:10064C0024FB00222021724801F01FFB01224021D3
:10065C006F4801F01AFB012280216D4801F015FB57
:10066C0000224FF480716A4801F00FFB00224FF416
:10067C000071674801F009FB7B68052B24D100222F
:10068C000821634801F001FB01221021604801F0B0
:10069C00FCFA002220215E4801F0F7FA00224021EA
:1006AC005B4801F0F2FA01228021594801F0EDFA81
:1006BC0000224FF48071564801F0E7FA00224FF403
:1006CC000071534801F0E1FA7B68062B24D100221B
:1006DC0008214F4801F0D9FA012210214C4801F0B1
:1006EC00D4FA002220214A4801F0CFFA00224021FE
:1006FC00474801F0CAFA00228021454801F0C5FAAA
:10070C0000224FF48071424801F0BFFA00224FF4EE
:10071C0000713F4801F0B9FA7B68072B24D1002205
:10072C0008213B4801F0B1FA00221021384801F0B1
:10073C00ACFA00222021364801F0A7FA0122402110
:10074C00334801F0A2FA01228021314801F09DFAD0
:10075C0001224FF480712E4801F097FA01224FF4D8
:10076C0000712B4801F091FA7B68082B24D10022F0
:10077C000821274801F089FA00221021244801F0B1
:10078C0084FA00222021224801F07FFA0022402125
:10079C001F4801F07AFA002280211D4801F075FAF9
:1007AC0000224FF480711A4801F06FFA00224FF4C6
:1007BC000071174801F069FA7B68092B24D10022DB
:1007CC000821134801F061FA00221021104801F0B1
:1007DC005CFA002220210E4801F057FA0022402139
:1007EC000B4801F052FA01228021094801F04DFA20
:1007FC0000224FF48071064801F047FA00224FF4B2
:10080C000071034801F041FA00BF0837BD4680BDB6
:10081C00000C014080B582B000AF786039607B6815
:10082C006F2B03D07B68702B17D032E000224FF473
:10083C0080411A4801F029FA01224FF4004117486F
:10084C0001F023FA3B68164A82FB03129210DB1765
:10085C00D31A1846FFF774FC1BE001224FF48041B9
:10086C000E4801F012FA00224FF400410B4801F03F
:10087C000CFA3A680A4B83FB02139910D317C91A66
:10088C000B469B000B445B00D11A0846FFF758FC43
:10089C0000BF00BF0837BD4680BD00BF000C014043
:1008AC006766666680B582B000AF786039607B6839
:1008BC00DE2B03D07B68DF2B17D032E000224FF405
:1008CC0080511A4801F0E1F901224FF40051174808
:1008DC0001F0DBF93B68164A82FB03129210DB171E
:1008EC00D31A1846FFF7FCFD1BE001224FF4805190
:1008FC000E4801F0CAF900224FF400510B4801F0E8
:10090C00C4F93A680A4B83FB02139910D317C91A1E
:10091C000B469B000B445B00D11A0846FFF7E0FD29
:10092C0000BF00BF0837BD4680BD00BF000C0140B2
:10093C006766666680B500AF064B1B6819466F206C
:10094C00FFF768FF044B1B681946DE20FFF7AAFF70
:10095C0000BF80BD980000209000002080B500AF43
:10096C00064B1B6819467020FFF754FF044B1B689D
:10097C001946DF20FFF796FF00BF80BD98000020CE
:10098C009000002080B483B000AF7860094A7B6887
:10099C0052F82330012B06D1064A7B68002142F81D
:1009AC002310012300E0002318460C37BD4680BC01
:1009BC00704700BF8400002080B483B000AF786023
:1009CC00044A7B68012142F8231000BF0C37BD4656
:1009DC0080BC70478400002080B582B000AF00233B
:1009EC007B6084E0464A7B6852F8232045497B684B
:1009FC0041F82320444A7B6852F8232040497B6805
:100A0C0041F823207B68002B0AD101213F4801F0DB
:100A1C0025F9034619463C4A7B6842F823101AE034
:100A2C007B68012B0AD10221384801F017F90346E3
:100A3C001946354A7B6842F823100CE07B68022B80
:100A4C0009D10421314801F009F9034619462E4A0F
:100A5C007B6842F823102B4A7B6852F823202849E4
:100A6C007B6851F823309A423ED1254A7B6852F874
:100A7C00232025497B6851F823309A4234D1224AED
:100A8C007B6852F8232022497B6851F823309A4224
:100A9C0016D01D4A7B6852F823201D497B6841F80B
:100AAC002320194A7B6852F82330002B1CD1194A99
:100ABC007B68C82142F823107868FFF77DFF13E0AC
:100ACC00144A7B6852F823305A1E12497B6841F84D
:100ADC002320104A7B6852F82330002B04D10C4A97
:100AEC007B68012142F823107B6801337B607B68B3
:100AFC00022B7FF777AF00BF00BF0837BD4680BD24
:100B0C00180000200C00002000000020000C014008
:100B1C00240000207800002080B400AF0A4B022291
:100B2C001A600A4B03221A60094B05221A60084B03
:100B3C001B68084A1360054B1B68074A136000BF0B
:100B4C00BD4680BC704700BF94000020A000002070
:100B5C009C000020980000209000002080B500AF81
:100B6C0000F092FD00F01AF800F0A0F800F052F836
:100B7C00084801F0E7FCFFF7CFFF00F00BF9064B3C
:100B8C001B68012BF9D100F055FB4FF4FA7000F003
:100B9C0035FBF2E7A40000206800002080B590B07F
:100BAC0000AF07F1180328220021184602F086F83E
:100BBC003B1D00221A605A609A60DA601A610223A7
:100BCC00BB610123BB621023FB6200237B6307F133
:100BDC001803184601F08AF80346002B01D000F0E8
:100BEC00D3F80F237B600023BB600023FB60002342
:100BFC003B6100237B613B1D0021184601F0F6FA96
:100C0C000346002B01D000F0BFF800BF4037BD46B3
:100C1C0080BD000080B586B000AF07F1080300224C
:100C2C001A605A609A60DA603B4600221A605A6079
:100C3C001D4B4FF080421A601B4B41F63F725A60BD
:100C4C00194B00229A60184B0922DA60164B0022CD
:100C5C001A61154B00229A61134801F023FC0346DC
:100C6C00002B01D000F090F84FF48053BB6007F1DB
:100C7C00080319460C4801F0B9FD0346002B01D0BE
:100C8C0000F082F800233B6000237B603B46194652
:100C9C00054801F085FF0346002B01D000F074F8E5
:100CAC0000BF1837BD4680BDA400002080B586B0BB
:100CBC0000AF07F1080300221A605A609A60DA60EC
:100CCC00284B9B69274A43F004039361254B9B698E
:100CDC0003F004037B607B68224B9B69214A43F041
:100CEC00080393611F4B9B6903F008033B603B684F
:100CFC0000224FF67E611C4800F0C7FF00224FF225
:100D0C00F8311A4800F0C1FF4FF67E63BB60012337
:100D1C00FB6000233B6102237B6107F1080319464A
:100D2C00114800F021FE0723BB600023FB60002369
:100D3C003B6107F1080319460C4800F015FE4FF211
:100D4C00F833BB600123FB6000233B6102237B6112
:100D5C0007F108031946054800F006FE00BF1837D6
:100D6C00BD4680BD0010024000080140000C01404F
:100D7C0080B582B000AF786000F082FAFFF72CFEED
:100D8C0000BF0837BD4680BD80B400AF72B600BF4F
:100D9C00FEE7000080B500AFA84B1B68042B00F2E7
:100DAC00428101A252F823F0C90D0008E30D00089E
:100DBC001F0E0008D50E0008890F0008A04B022258
:100DCC001A60FFF7B7FD4FF4FA7000F017FA9B4B5F
:100DDC0001221A6030E100F045F90020FFF7D2FD46
:100DEC000346012B40F021814FF4FA7000F006FA13
:100DFC00944B1B68944A1360944B02221A60914BDB
:100E0C001B68934A13608D4B02221A6000F06EFB34
:100E1C000BE1904B1B68012B16D14FF4FA7000F0CC
:100E2C00EDF900F0FDFA864B1B68022B05D1FFF79C
:100E3C0095FD834B00221A6001E0FFF77BFD804B90
:100E4C001B6801337E4A13600020FFF79BFD0346AD
:100E5C00012B13D14FF4FA7000F0D0F97E4B1B68C4
:100E6C00794A1360794B03221A607B4B1B68784AD2
:100E7C001360724B03221A6000F038FB0120FFF75D
:100E8C0081FD0346012B0FD16F4B1B68632B02DDD9
:100E9C006D4B01221A606C4B1B6801336A4A13605C
:100EAC00694B1B686A4A13600220FFF76BFD03460F
:100EBC00012B40F0BC80644B1B68624A1360614B91
:100ECC001B68634A1360B2E0624B1B68012B16D19E
:100EDC004FF4FA7000F092F900F0C4FA584B1B680A
:100EEC00022B05D1FFF73AFD554B00221A6001E0A9
:100EFC00FFF720FD524B1B680133514A1360002051
:100F0C00FFF740FD0346012B13D14FF4FA7000F0AC
:100F1C0075F9524B1B684C4A13604C4B04221A60F7
:100F2C004E4B1B684A4A1360444B04221A6000F073
:100F3C00DDFA0120FFF726FD0346012B0FD1424BB2
:100F4C001B68632B02DD404B01221A603E4B1B6871
:100F5C0001333D4A13603C4B1B683D4A1360022031
:100F6C00FFF710FD0346012B63D1374B1B683A4A40
:100F7C001360394B1B68364A13605AE0354B1B68BB
:100F8C00012B16D14FF4FA7000F038F900F08CFAFE
:100F9C002B4B1B68022B05D1FFF7E0FC284B0022E2
:100FAC001A6001E0FFF7C6FC254B1B680133244A8D
:100FBC0013600020FFF7E6FC0346012B0ED1284BF3
:100FCC0005221A601E4B02221A60FFF7B3FC4FF485
:100FDC00FA7000F013F9194B01221A600120FFF787
:100FEC00D1FC0346012B0FD1174B1B68632B02DD81
:100FFC00154B01221A60144B1B680133124A136003
:10100C00114B1B68124A13600220FFF7BBFC03460E
:10101C00012B10D10C4B1B68104A13600F4B1B6833
:10102C000B4A136007E000BF06E000BF04E000BFFE
:10103C0002E000BF00E000BF00BF80BD5C000020EC
:10104C00F00000209C000020EC0000209800002004
:10105C00900000206800002094000020A0000020D8
:10106C003000002080B500AF4F4B1B68013B042BB8
:10107C0000F28F8001A252F823F000BF6511000826
:10108C00CF100008FD100008371100089D10000853
:10109C00464B1B684FF47A7202FB03F3184600F0C0
:1010AC0091F8434B1B68434A1360404B1B68424A00
:1010BC00136000F03FFA00F0ABFA3B4B02221A60CF
:1010CC0070E03E4B1B68012B65D13D4B1B684FF408
:1010DC007A7202FB03F3184600F074F800F082FAFF
:1010EC00374B1B68344A13602F4B03221A6052E0B3
:1010FC00324B1B68012B50D12C4B1B684FF47A726E
:10110C0002FB03F3184600F05DF800F03FFA00F024
:10111C0053FA264B1B68274A1360254B1B68264A3B
:10112C001360214B04221A6037E0244B1B68012BFF
:10113C0035D1234B1B684FF47A7202FB03F318462C
:10114C0000F040F800F00CFA1D4B1B68194A1360B4
:10115C00154B01221A6022E0184B1B68012B20D181
:10116C00124B1B684FF47A7202FB03F3184600F023
:10117C0029F800F0DFF900F04BFA0D4B1B680D4A13
:10118C0013600A4B1B680C4A1360074B02221A604F
:10119C0007E000BF06E000BF04E000BF02E000BFB4
:1011AC0000E000BF00BF80BD30000020A000002088
:1011BC009C0000209800002090000020600000207F
:1011CC009400002080B483B000AF78607B68084A3C
:1011DC0082FB03129210DB17D31A064A1360064BDC
:1011EC0000221A6000BF0C37BD4680BC704700BFA0
:1011FC0067666666640000206000002080B483B0DF
:10120C0000AF78607B68084A82FB03129210DB17F0
:10121C00D31A064A1360064B00221A6000BF0C3723
:10122C00BD4680BC704700BF676666666C000020D8
:10123C006800002080B500AF0E4B1B68022B0FD14D
:10124C00FFF78CFB0C4B1B68013B0B4A13600B4BE1
:10125C001B68013B094A1360064B00221A6001E02F
:10126C00FFF768FB034B1B680133024A136000BF96
:10127C0080BD00BFF00000209000002098000020EE
:10128C0080B400AF194B1B68002B0BDD174B1B6890
:10129C00013B164A1360154B1B68002B02DC144BE8
:1012AC0001221A60134B1B68002B0BDD114B1B68C2
:1012BC00013B104A13600F4B1B68002B02DC0E4BDA
:1012CC0001221A600D4B1B68002B0BDD0B4B1B68AE
:1012DC00013B0A4A1360094B1B68002B02DC084BCC
:1012EC0001221A6000BFBD4680BC7047640000201C
:1012FC00600000206C0000206800002074000020BA
:10130C007000002080B485B000AF154B9B69144A67
:10131C0043F001039361124B9B6903F00103BB6023
:10132C00BB680F4BDB690E4A43F08053D3610C4B07
:10133C00DB6903F080537B607B680A4B5B68FB6066
:10134C00FB6823F0E063FB60FB6843F08063FB60A9
:10135C00044AFB68536000BF1437BD4680BC70471D
:10136C00001002400000014080B584B000AF7860EE
:10137C007B681B68B3F1804F13D10C4BDB690B4AB4
:10138C0043F00103D361094BDB6903F00103FB60FC
:10139C00FB68002200211C2000F0AFFA1C2000F09A
:1013AC00C8FA00BF1037BD4680BD00BF0010024018
:1013BC0080B400AFFEE780B400AFFEE780B400AFAE
:1013CC00FEE780B400AFFEE780B400AFFEE780B468
:1013DC0000AF00BFBD4680BC704780B400AF00BFFB
:1013EC00BD4680BC704780B400AF00BFBD4680BC1A
:1013FC00704780B500AF00F08DF900BF80BD0000D4
:10140C0080B500AF024801F0E9F800BF80BD00BF15
:10141C00A400002080B400AF00BFBD4680BC704764
:10142C0080B500AF02210E4800F047FC01220421D8
:10143C000B4800F02AFC01220821094800F025FC89
:10144C001021074800F039FC01222021044800F04B
:10145C001CFC01224021024800F017FC00BF80BD9B
:10146C000008014080B500AF04210E4800F025FCB7
:10147C00012202210B4800F008FC01220821094836
:10148C0000F003FC2021074800F017FC012210217A
:10149C00044800F0FAFB01224021024800F0F5FB61
:1014AC0000BF80BD0008014080B500AF08210E4888
:1014BC0000F003FC012204210B4800F0E6FB0122A2
:1014CC000221094800F0E1FB4021074800F0F5FB40
:1014DC0001222021044800F0D8FB012210210248EF
:1014EC0000F0D3FB00BF80BD0008014080B500AF09
:1014FC00012202210E4800F0C8FB012204210C48F5
:10150C0000F0C3FB01220821094800F0BEFB0122B8
:10151C001021074800F0B9FB01222021044800F0FB
:10152C00B4FB01224021024800F0AFFB00BF80BD9C
:10153C000008014080B500AF00220221074800F0EE
:10154C00A4FB01220421054800F09FFB0122082185
:10155C00024800F09AFB00BF80BD00BF00080140AC
:10156C0080B500AF01220221074800F08EFB00225B
:10157C000421054800F089FB01220821024800F0F3
:10158C0084FB00BF80BD00BF0008014080B500AFE8
:10159C0001220221074800F078FB012204210548B2
:1015AC0000F073FB00220821024800F06EFB00BF24
:1015BC0080BD00BF0008014080B500AF00221021A3
:1015CC00074800F062FB01222021054800F05DFB7A
:1015DC0001224021024800F058FB00BF80BD00BF33
:1015EC000008014080B500AF01221021074800F02F
:1015FC004CFB00222021054800F047FB0122402132
:10160C00024800F042FB00BF80BD00BF0008014053
:10161C0080B500AF01221021074800F036FB0122F3
:10162C002021054800F031FB00224021024800F047
:10163C002CFB00BF80BD00BF00080140FFF7EAFE95
:10164C000B480C490C4A002302E0D458C450043314
:10165C00C4188C42F9D3094A094C002301E01360E9
:10166C000432A242FBD301F005FBFFF777FA704777
:10167C0000000020400000201C2D0008400000202D
:10168C00F8000020FEE7000080B500AF084B1B6897
:10169C00074A43F010031360032000F023F90F20D6
:1016AC0000F008F8FFF72EFE0023184680BD00BF9F
:1016BC000020024080B582B000AF7860124B1A68EF
:1016CC00124B1B7819464FF47A73B3FBF1F3B2FB50
:1016DC00F3F3184600F03BF90346002B01D001232D
:1016EC000EE07B680F2B0AD8002279684FF0FF3090
:1016FC0000F003F9064A7B681360002300E0012325
:10170C0018460837BD4680BD340000203C00002040
:10171C003800002080B400AF054B1B781A46054BEF
:10172C001B681344034A136000BFBD4680BC70475E
:10173C003C000020F400002080B400AF024B1B687A
:10174C001846BD4680BC7047F400002080B485B0BC
:10175C0000AF78607B6803F00703FB600C4BDB6821
:10176C00BB60BA684FF6FF031340BB60FB681A02FC
:10177C00BB68134343F0BF6343F40033BB60044ABC
:10178C00BB68D36000BF1437BD4680BC704700BF38
:10179C0000ED00E080B400AF044BDB681B0A03F0E3
:1017AC0007031846BD4680BC704700BF00ED00E043
:1017BC0080B483B000AF0346FB7197F90730002B60
:1017CC000BDBFB7903F01F02064997F907305B0925
:1017DC00012000FA02F241F8232000BF0C37BD466D
:1017EC0080BC704700E100E080B483B000AF0346DA
:1017FC003960FB7197F90730002B0ADB3B68DAB2D2
:10180C000C4997F907301201D2B20B4483F800232C
:10181C000AE03B68DAB20849FB7903F00F03043B9A
:10182C001201D2B20B441A7600BF0C37BD4680BCF5
:10183C00704700BF00E100E000ED00E080B489B02B
:10184C0000AFF860B9607A60FB6803F00703FB61D6
:10185C00FB69C3F10703042B28BF0423BB61FB699D
:10186C000433062B02D9FB69033B00E000237B61A8
:10187C004FF0FF32BB6902FA03F3DA43BB681A403C
:10188C007B699A404FF0FF317B6901FA03F3D9432E
:10189C007B680B40134318462437BD4680BC704709
:1018AC0080B582B000AF78607B68013BB3F1807F7C
:1018BC0001D301230FE00A4A7B68013B53600F21DF
:1018CC004FF0FF30FFF790FF054B00229A60044B5E
:1018DC0007221A60002318460837BD4680BD00BF9A
:1018EC0010E000E080B582B000AF78607868FFF758
:1018FC002DFF00BF0837BD4680BD80B586B000AF58
:10190C000346B9607A60FB7300237B61FFF742FFEB
:10191C0078617A68B9687869FFF790FF024697F9A1
:10192C000F3011461846FFF75FFF00BF1837BD4652
:10193C0080BD80B582B000AF0346FB7197F90730CC
:10194C001846FFF735FF00BF0837BD4680BD80B590
:10195C0082B000AF78607868FFF7A2FF03461846A4
:10196C000837BD4680BD000080B48BB000AF7860F6
:10197C00396000237B6200233B6248E101227B6AD1
:10198C0002FA03F3FB613B681B68FA691340BB6105
:10199C00BA69FB699A4240F037813B685B68A34A9D
:1019AC0093425ED0A14A934275D8A14A934258D033
:1019BC009F4A93426FD89F4A934252D09D4A93427A
:1019CC0069D89D4A93424CD09B4A934263D89B4A18
:1019DC00934246D0994A93425DD8122B2AD8122BA7
:1019EC0059D801A252F823F06F1A0008491A0008BE
:1019FC005B1A00089D1A0008A31A0008A31A000815
:101A0C00A31A0008A31A0008A31A0008A31A0008B6
:101A1C00A31A0008A31A0008A31A0008A31A0008A6
:101A2C00A31A0008A31A0008A31A0008511A0008E8
:101A3C00651A0008824A934213D02CE03B68DB689D
:101A4C003B6229E03B68DB6804333B6224E03B6883
:101A5C00DB6808333B621FE03B68DB680C333B629E
:101A6C001AE03B689B68002B02D104233B6213E015
:101A7C003B689B68012B05D108233B627B68FA69A4
:101A8C001A6109E008233B627B68FA695A6103E03A
:101A9C0000233B6200E000BFBB69FF2B01D87B68D1
:101AAC0001E07B6804337B61BB69FF2B02D87B6A46
:101ABC009B0002E07B6A083B9B003B617B691A68D8
:101ACC000F213B6901FA03F3DB431A40396A3B6986
:101ADC0001FA03F31A437B691A603B685B6803F0F5
:101AEC008053002B00F09080564B9B69554A43F075
:101AFC0001039361534B9B6903F00103BB60BB680B
:101B0C00514A7B6A9B08023352F82330FB607B6A94
:101B1C0003F003039B000F2202FA03F3DB43FA6882
:101B2C001340FB607B68494A93420DD07B68484A5E
:101B3C00934207D07B68474A934201D1022304E0C9
:101B4C00032302E0012300E000237A6A02F003027F
:101B5C0092009340FA681343FB603B497B6A9B08F5
:101B6C000233FA6841F823203B685B6803F4801366
:101B7C00002B06D0384B9A683749BB6913438B60EE
:101B8C0006E0354B9A68BB69DB43334913408B60E5
:101B9C003B685B6803F40013002B06D02E4BDA680D
:101BAC002D49BB691343CB6006E02B4BDA68BB694C
:101BBC00DB4329491340CB603B685B6803F400337B
:101BCC00002B06D0244B5A682349BB6913434B6046
:101BDC0006E0214B5A68BB69DB431F4913404B603D
:101BEC003B685B6803F48033002B06D01A4B1A68F1
:101BFC001949BB6913430B6006E0174B1A68BB69A4
:101C0C00DB43154913400B607B6A01337B623B68F5
:101C1C001A687B6A22FA03F3002B7FF4AFAE00BF85
:101C2C0000BF2C37BD4680BC704700BF000032108F
:101C3C0000003110000022100000211000001210D2
:101C4C00000011100010024000000140000801408B
:101C5C00000C0140001001400004014080B485B02C
:101C6C0000AF78600B467B807B689A687B8813405A
:101C7C00002B02D00123FB7301E00023FB73FB7BE1
:101C8C0018461437BD4680BC704780B483B000AF93
:101C9C0078600B467B8013467B707B78002B03D0DF
:101CAC007A887B681A6103E07B881A047B681A6166
:101CBC0000BF0C37BD4680BC704780B485B000AF08
:101CCC0078600B467B807B68DB68FB607A88FB68FE
:101CDC0013401A04FB68D9437B880B401A437B687A
:101CEC001A6100BF1437BD4680BC704780B586B002
:101CFC0000AF78607B68002B01D101236CE27B681C
:101D0C001B6803F00103002B00F08780924B5B688B
:101D1C0003F00C03042B0CD08F4B5B6803F00C030B
:101D2C00082B12D18C4B5B6803F48033B3F5803FE6
:101D3C000BD1894B1B6803F40033002B6CD07B68F0
:101D4C005B68002B68D1012346E27B685B68B3F5C6
:101D5C00803F06D1804B1B687F4A43F4803313606D
:101D6C002EE07B685B68002B0CD17B4B1B687A4A9E
:101D7C0023F480331360784B1B68774A23F4802359
:101D8C0013601DE07B685B68B3F5A02F0CD1724B20
:101D9C001B68714A43F4802313606F4B1B686E4AB7
:101DAC0043F4803313600BE06B4B1B686A4A23F4DB
:101DBC0080331360684B1B68674A23F480231360DD
:101DCC007B685B68002B13D0FFF7B6FC386108E02A
:101DDC00FFF7B2FC02463B69D31A642B01D90323EB
:101DEC00FAE15D4B1B6803F40033002BF0D014E0D8
:101DFC00FFF7A2FC386108E0FFF79EFC02463B6946
:101E0C00D31A642B01D90323E6E1534B1B6803F46B
:101E1C000033002BF0D100E000BF7B681B6803F09F
:101E2C000203002B63D04C4B5B6803F00C03002BBC
:101E3C000BD0494B5B6803F00C03082B1CD1464BB1
:101E4C005B6803F48033002B16D1434B1B6803F003
:101E5C000203002B05D07B681B69012B01D00123E9
:101E6C00BAE13D4B1B6823F0F8027B685B69DB0031
:101E7C00394913430B603AE07B681B69002B20D077
:101E8C00364B01221A60FFF757FC386108E0FFF768
:101E9C0053FC02463B69D31A022B01D903239BE165
:101EAC002D4B1B6803F00203002BF0D02A4B1B6850
:101EBC0023F0F8027B685B69DB00274913430B6056
:101ECC0015E0264B00221A60FFF736FC386108E05B
:101EDC00FFF732FC02463B69D31A022B01D90323CC
:101EEC007AE11D4B1B6803F00203002BF0D17B68D9
:101EFC001B6803F00803002B3AD07B689B69002B0E
:101F0C0019D0174B01221A60FFF716FC386108E054
:101F1C00FFF712FC02463B69D31A022B01D90323AB
:101F2C005AE10D4B5B6A03F00203002BF0D0012049
:101F3C0000F09AFA1CE00A4B00221A60FFF7FCFB37
:101F4C0038610FE0FFF7F8FB02463B69D31A022B0E
:101F5C0008D9032340E100BF0010024000004242B8
:101F6C00800442429E4B5B6A03F00203002BE9D1D2
:101F7C007B681B6803F00403002B00F0A680002391
:101F8C00FB75974BDB6903F08053002B0DD1944B01
:101F9C00DB69934A43F08053D361914BDB6903F0C7
:101FAC008053BB60BB680123FB758E4B1B6803F42D
:101FBC008073002B18D18B4B1B688A4A43F48073B7
:101FCC001360FFF7B9FB386108E0FFF7B5FB024679
:101FDC003B69D31A642B01D90323FDE0814B1B68A9
:101FEC0003F48073002BF0D07B68DB68012B06D1E7
:101FFC007B4B1B6A7A4A43F0010313622DE07B682A
:10200C00DB68002B0CD1764B1B6A754A23F001035D
:10201C001362734B1B6A724A23F0040313621CE0B5
:10202C007B68DB68052B0CD16D4B1B6A6C4A43F04B
:10203C00040313626A4B1B6A694A43F0010313627F
:10204C000BE0674B1B6A664A23F001031362644B77
:10205C001B6A634A23F0040313627B68DB68002B62
:10206C0015D0FFF769FB38610AE0FFF765FB024604
:10207C003B69D31A41F28832934201D90323ABE076
:10208C00574B1B6A03F00203002BEED014E0FFF752
:10209C0053FB38610AE0FFF74FFB02463B69D31A4A
:1020AC0041F28832934201D9032395E04C4B1B6AD1
:1020BC0003F00203002BEED1FB7D012B05D1484B25
:1020CC00DB69474A23F08053D3617B68DB69002BC3
:1020DC0000F08180424B5B6803F00C03082B61D04D
:1020EC007B68DB69022B46D13F4B00221A60FFF75D
:1020FC0023FB386108E0FFF71FFB02463B69D31A4C
:10210C00022B01D9032367E0354B1B6803F00073E6
:10211C00002BF0D17B681B6AB3F5803F08D1304BA4
:10212C005B6823F400327B689B682D4913434B603A
:10213C002B4B5B6823F474127B68196A7B685B6AAF
:10214C000B43274913434B60274B01221A60FFF7BF
:10215C00F3FA386108E0FFF7EFFA02463B69D31A4D
:10216C00022B01D9032337E01D4B1B6803F00073CE
:10217C00002BF0D02FE01C4B00221A60FFF7DCFA8A
:10218C00386108E0FFF7D8FA02463B69D31A022BF4
:10219C0001D9032320E0124B1B6803F00073002BC2
:1021AC00F0D118E07B68DB69012B01D1012313E02E
:1021BC000B4B5B68FB60FB6803F480327B681B6A2B
:1021CC009A4206D1FB6803F470127B685B6A9A42F0
:1021DC0001D0012300E0002318461837BD4680BD0E
:1021EC0000100240007000406000424280B584B094
:1021FC0000AF786039607B68002B01D10123D0E0FF
:10220C006A4B1B6803F007033A689A4210D9674B74
:10221C001B6823F0070265493B6813430B60634B53
:10222C001B6803F007033A689A4201D00123B8E017
:10223C007B681B6803F00203002B20D07B681B68B3
:10224C0003F00403002B05D0594B5B68584A43F448
:10225C00E06353607B681B6803F00803002B05D018
:10226C00534B5B68524A43F460535360504B5B686A
:10227C0023F0F0027B689B684D4913434B607B68ED
:10228C001B6803F00103002B40D07B685B68012BBB
:10229C0007D1474B1B6803F40033002B15D10123E6
:1022AC007FE07B685B68022B07D1414B1B6803F016
:1022BC000073002B09D1012373E03D4B1B6803F025
:1022CC000203002B01D101236BE0394B5B6823F037
:1022DC0003027B685B68364913434B60FFF72CFAAB
:1022EC00F8600AE0FFF728FA0246FB68D31A41F2BD
:1022FC008832934201D9032353E02D4B5B6803F0E2
:10230C000C027B685B689B009A42EBD1274B1B68E5
:10231C0003F007033A689A4210D2244B1B6823F04F
:10232C00070222493B6813430B60204B1B6803F0E8
:10233C0007033A689A4201D0012332E07B681B689C
:10234C0003F00403002B08D0194B5B6823F4E06204
:10235C007B68DB68164913434B607B681B6803F092
:10236C000803002B09D0124B5B6823F460527B6886
:10237C001B69DB000E4913434B6000F021F8024649
:10238C000B4B5B681B0903F00F030A49CB5C22FA69
:10239C0003F3094A1360094B1B681846FFF78AF9C7
:1023AC00002318461037BD4680BD00BF00200240F8
:1023BC0000100240F02C00083400002038000020EF
:1023CC0080B487B000AF0023FB600023BB60002308
:1023DC007B6100237B6000233B611E4B5B68FB60D1
:1023EC00FB6803F00C03042B02D0082B03D027E06E
:1023FC00194B3B6127E0FB689B0C03F00F03174A5A
:10240C00D35C7B60FB6803F48033002B10D0114B42
:10241C005B685B0C03F00103114AD35CBB607B6807
:10242C000D4A02FB03F2BB68B2FBF3F37B6104E0E1
:10243C007B680C4A02FB03F37B617B693B6102E026
:10244C00054B3B6100BF3B6918461C37BD4680BC41
:10245C00704700BF0010024000127A00002D0008E7
:10246C00102D000800093D0080B485B000AF7860E5
:10247C000A4B1B680A4AA2FB03235B0A7A6802FB1D
:10248C0003F3FB6000BFFB685A1EFA60002BF9D106
:10249C0000BF00BF1437BD4680BC7047340000201D
:1024AC00D34D621080B582B000AF78607B68002B92
:1024BC0001D1012341E07B6893F83D30DBB2002B66
:1024CC0006D17B68002283F83C207868FEF74CFF2D
:1024DC007B68022283F83D207B681A687B68043392
:1024EC001946104600F06EFA7B68012283F84620EC
:1024FC007B68012283F83E207B68012283F83F2011
:10250C007B68012283F840207B68012283F84120FC
:10251C007B68012283F842207B68012283F84320E8
:10252C007B68012283F844207B68012283F84520D4
:10253C007B68012283F83D20002318460837BD46EE
:10254C0080BD000080B485B000AF78607B6893F8E4
:10255C003D30DBB2012B01D0012335E07B68022238
:10256C0083F83D207B681B68DA687B681B6842F047
:10257C000102DA607B681B68164A934209D07B68BB
:10258C001B68B3F1804F04D07B681B68124A9342DE
:10259C0011D17B681B689B6803F00703FB60FB6829
:1025AC00062B10D07B681B681A687B681B6842F08E
:1025BC0001021A6007E07B681B681A687B681B685D
:1025CC0042F001021A60002318461437BD4680BC45
:1025DC00704700BF002C01400004004080B582B061
:1025EC0000AF78607B681B681B6903F00203022B49
:1025FC0022D17B681B68DB6803F00203022B1BD122
:10260C007B681B686FF002021A617B6801221A77E3
:10261C007B681B689B6903F00303002B03D078686D
:10262C0000F0B4F905E0786800F0A7F9786800F0DC
:10263C00B6F97B6800221A777B681B681B6903F06C
:10264C000403042B22D17B681B68DB6803F00403B2
:10265C00042B1BD17B681B686FF004021A617B682A
:10266C0002221A777B681B689B6903F44073002B6A
:10267C0003D0786800F08AF905E0786800F07DF9FD
:10268C00786800F08CF97B6800221A777B681B68ED
:10269C001B6903F00803082B22D17B681B68DB68DD
:1026AC0003F00803082B1BD17B681B686FF0080232
:1026BC001A617B6804221A777B681B68DB6903F05C
:1026CC000303002B03D0786800F060F905E078680C
:1026DC0000F053F9786800F062F97B6800221A77F1
:1026EC007B681B681B6903F01003102B22D17B68DD
:1026FC001B68DB6803F01003102B1BD17B681B6875
:10270C006FF010021A617B6808221A777B681B68CD
:10271C00DB6903F44073002B03D0786800F036F9C2
:10272C0005E0786800F029F9786800F038F97B68E2
:10273C0000221A777B681B681B6903F00103012BCD
:10274C000ED17B681B68DB6803F00103012B07D1FA
:10275C007B681B686FF001021A617868FEF708FB52
:10276C007B681B681B6903F08003802B0ED17B6890
:10277C001B68DB6803F08003802B07D17B681B6828
:10278C006FF080021A61786800F06BFA7B681B6846
:10279C001B6903F04003402B0ED17B681B68DB6880
:1027AC0003F04003402B07D17B681B686FF040029D
:1027BC001A61786800F0FCF87B681B681B6903F0F1
:1027CC002003202B0ED17B681B68DB6803F02003F1
:1027DC00202B07D17B681B686FF020021A61786888
:1027EC0000F036FA00BF0837BD4680BD80B584B016
:1027FC0000AF786039600023FB737B6893F83C3042
:10280C00012B01D10223B4E07B68012283F83C2028
:10281C007B68022283F83D207B681B689B68BB6049
:10282C00BB6823F07703BB60BB6823F47F43BB60BA
:10283C007B681B68BA689A603B681B68B3F5005FDD
:10284C003ED0B3F5005F00F28780B3F5805F00F0F7
:10285C008680B3F5805F7FD8702B1AD0702B7BD815
:10286C00602B50D0602B77D8502B3CD0502B73D88A
:10287C00402B58D0402B6FD8302B64D0302B6BD8DA
:10288C00202B60D0202B67D8002B5CD0102B5AD07B
:10289C0062E07B6818683B6899683B685A683B68DB
:1028AC00DB6800F05EF97B681B689B68BB60BB68EB
:1028BC0043F07703BB607B681B68BA689A604FE093
:1028CC007B6818683B6899683B685A683B68DB68AA
:1028DC0000F047F97B681B689A687B681B6842F4B8
:1028EC0080429A603CE07B6818683B6859683B689A
:1028FC00DB681A4600F0BEF87B681B68502118464E
:10290C0000F015F92CE07B6818683B6859683B6847
:10291C00DB681A4600F0DCF87B681B6860211846FF
:10292C0000F005F91CE07B6818683B6859683B6847
:10293C00DB681A4600F09EF87B681B68402118463D
:10294C0000F0F5F80CE07B681A683B681B681946C8
:10295C00104600F0ECF803E00123FB7300E000BF2D
:10296C007B68012283F83D207B68002283F83C20A1
:10297C00FB7B18461037BD4680BD80B483B000AFDA
:10298C00786000BF0C37BD4680BC704780B483B004
:10299C0000AF786000BF0C37BD4680BC704780B478
:1029AC0083B000AF786000BF0C37BD4680BC704769
:1029BC0080B483B000AF786000BF0C37BD4680BCDC
:1029CC007047000080B485B000AF786039607B68D8
:1029DC001B68FB607B68254A934207D07B68B3F188
:1029EC00804F03D07B68224A934208D1FB6823F0C6
:1029FC007003FB603B685B68FA681343FB607B68A1
:102A0C001A4A934207D07B68B3F1804F03D07B689E
:102A1C00174A934208D1FB6823F44073FB603B6870
:102A2C00DB68FA681343FB60FB6823F080023B68A9
:102A3C005B691343FB607B68FA681A603B689A68B1
:102A4C007B68DA623B681A687B689A627B68074A23
:102A5C00934203D13B681A697B681A637B68012235
:102A6C005A6100BF1437BD4680BC7047002C014032
:102A7C000004004080B487B000AFF860B9607A60A1
:102A8C00FB681B6A7B61FB681B6A23F00102FB6815
:102A9C001A62FB689B693B613B6923F0F0033B6165
:102AAC007B681B013A6913433B617B6923F00A0382
:102ABC007B617A69BB6813437B61FB683A699A61F5
:102ACC00FB687A691A6200BF1C37BD4680BC704730
:102ADC0080B487B000AFF860B9607A60FB681B6A9D
:102AEC007B61FB681B6A23F01002FB681A62FB68AF
:102AFC009B693B613B6923F470433B617B681B031F
:102B0C003A6913433B617B6923F0A0037B61BB688B
:102B1C001B017A6913437B61FB683A699A61FB6814
:102B2C007A691A6200BF1C37BD4680BC704780B4FE
:102B3C0085B000AF786039607B689B68FB60FB6890
:102B4C0023F07003FB603A68FB68134343F0070300
:102B5C00FB607B68FA689A6000BF1437BD4680BC86
:102B6C00704780B487B000AFF860B9607A603B60A2
:102B7C00FB689B687B617B6923F47F437B613B68CB
:102B8C001A027B681A43BB6813437A6913437B614F
:102B9C00FB687A699A6000BF1C37BD4680BC7047E1
:102BAC0080B485B000AF786039607B6893F83C30B6
:102BBC00012B01D1022341E07B68012283F83C20E8
:102BCC007B68022283F83D207B681B685B68FB6096
:102BDC007B681B689B68BB60FB6823F07003FB6021
:102BEC003B681B68FA681343FB607B681B68FA68D8
:102BFC005A607B681B68144A934209D07B681B6837
:102C0C00B3F1804F04D07B681B68104A93420CD1FF
:102C1C00BB6823F08003BB603B685B68BA681343F6
:102C2C00BB607B681B68BA689A607B68012283F87A
:102C3C003D207B68002283F83C2000231846143783
:102C4C00BD4680BC704700BF002C01400004004012
:102C5C0080B483B000AF786000BF0C37BD4680BC39
:102C6C00704780B483B000AF786000BF0C37BD46AE
:102C7C0080BC704770B500260C4D0D4C641BA41025
:102C8C00A64209D100F022F800260A4D0A4C641B1A
:102C9C00A410A64205D170BD55F8043B98470136E7
:102CAC00EEE755F8043B98470136F2E7142D00087F
:102CBC00142D0008142D0008182D0008034602449A
:102CCC00934200D1704703F8011BF9E7F8B500BF38
:102CDC00F8BC08BC9E467047F8B500BFF8BC08BCF1
:042CEC009E46704749
:102CF00000000000000000000102030406070809AC
:102D000002030405060708090A0B0C0D0E0F10102C
:042D100001020000BC
:042D14003101000881
:042D18000D010008A1
:102D1C0001000000000000000000000001000000A5
:102D2C000000000000000000010000000000000096
:102D3C000000000001000000000000000000000086
:102D4C00050000000024F400100000000100000049
:040000050800164990
:00000001FF
